{
  "_format": "hh-sol-artifact-1",
  "contractName": "OrderContract",
  "sourceName": "contracts/OrderContract.sol",
  "abi": [
    {
      "inputs": [],
      "stateMutability": "nonpayable",
      "type": "constructor"
    },
    {
      "anonymous": false,
      "inputs": [
        {
          "indexed": true,
          "internalType": "uint256",
          "name": "orderId",
          "type": "uint256"
        },
        {
          "indexed": false,
          "internalType": "bytes",
          "name": "contractId",
          "type": "bytes"
        },
        {
          "indexed": false,
          "internalType": "bytes",
          "name": "whitelistId",
          "type": "bytes"
        },
        {
          "indexed": false,
          "internalType": "bytes",
          "name": "supplierId",
          "type": "bytes"
        },
        {
          "indexed": false,
          "internalType": "bytes",
          "name": "hospitalId",
          "type": "bytes"
        },
        {
          "indexed": false,
          "internalType": "uint256",
          "name": "deposit",
          "type": "uint256"
        },
        {
          "indexed": false,
          "internalType": "uint256",
          "name": "dedit",
          "type": "uint256"
        },
        {
          "indexed": false,
          "internalType": "uint256",
          "name": "blockTime",
          "type": "uint256"
        },
        {
          "indexed": false,
          "internalType": "bytes",
          "name": "udi",
          "type": "bytes"
        },
        {
          "indexed": false,
          "internalType": "uint256",
          "name": "amount",
          "type": "uint256"
        },
        {
          "indexed": false,
          "internalType": "bytes",
          "name": "hospitalSignature",
          "type": "bytes"
        }
      ],
      "name": "OrderCreated",
      "type": "event"
    },
    {
      "anonymous": false,
      "inputs": [
        {
          "indexed": true,
          "internalType": "uint256",
          "name": "orderId",
          "type": "uint256"
        },
        {
          "indexed": false,
          "internalType": "bytes",
          "name": "supplierSignature",
          "type": "bytes"
        }
      ],
      "name": "SupplierSignatureStored",
      "type": "event"
    },
    {
      "inputs": [
        {
          "internalType": "bytes",
          "name": "_contractId",
          "type": "bytes"
        },
        {
          "internalType": "bytes",
          "name": "_whitelistId",
          "type": "bytes"
        },
        {
          "internalType": "bytes",
          "name": "_supplierId",
          "type": "bytes"
        },
        {
          "internalType": "bytes",
          "name": "_hospitalId",
          "type": "bytes"
        },
        {
          "internalType": "uint256",
          "name": "_deposit",
          "type": "uint256"
        },
        {
          "internalType": "uint256",
          "name": "_dedit",
          "type": "uint256"
        },
        {
          "internalType": "bytes",
          "name": "_hospitalSignature",
          "type": "bytes"
        },
        {
          "internalType": "bytes",
          "name": "_udi",
          "type": "bytes"
        },
        {
          "internalType": "uint256",
          "name": "_amount",
          "type": "uint256"
        }
      ],
      "name": "createOrderContract",
      "outputs": [
        {
          "internalType": "uint256",
          "name": "",
          "type": "uint256"
        }
      ],
      "stateMutability": "nonpayable",
      "type": "function"
    },
    {
      "inputs": [
        {
          "internalType": "uint256",
          "name": "orderId",
          "type": "uint256"
        }
      ],
      "name": "getOrderDetails",
      "outputs": [
        {
          "internalType": "bytes",
          "name": "contractId",
          "type": "bytes"
        },
        {
          "internalType": "bytes",
          "name": "whitelistId",
          "type": "bytes"
        },
        {
          "internalType": "bytes",
          "name": "supplierId",
          "type": "bytes"
        },
        {
          "internalType": "bytes",
          "name": "hospitalId",
          "type": "bytes"
        },
        {
          "internalType": "uint256",
          "name": "deposit",
          "type": "uint256"
        },
        {
          "internalType": "uint256",
          "name": "dedit",
          "type": "uint256"
        },
        {
          "internalType": "uint256",
          "name": "blockTime",
          "type": "uint256"
        },
        {
          "internalType": "bytes",
          "name": "udi",
          "type": "bytes"
        },
        {
          "internalType": "uint256",
          "name": "amount",
          "type": "uint256"
        },
        {
          "internalType": "bytes",
          "name": "hospitalSignature",
          "type": "bytes"
        },
        {
          "internalType": "bytes",
          "name": "supplierSignature",
          "type": "bytes"
        }
      ],
      "stateMutability": "view",
      "type": "function"
    },
    {
      "inputs": [],
      "name": "nextOrderId",
      "outputs": [
        {
          "internalType": "uint256",
          "name": "",
          "type": "uint256"
        }
      ],
      "stateMutability": "view",
      "type": "function"
    },
    {
      "inputs": [
        {
          "internalType": "uint256",
          "name": "",
          "type": "uint256"
        }
      ],
      "name": "orders",
      "outputs": [
        {
          "internalType": "bytes",
          "name": "contractId",
          "type": "bytes"
        },
        {
          "internalType": "bytes",
          "name": "whitelistId",
          "type": "bytes"
        },
        {
          "internalType": "bytes",
          "name": "supplierId",
          "type": "bytes"
        },
        {
          "internalType": "bytes",
          "name": "hospitalId",
          "type": "bytes"
        },
        {
          "internalType": "uint256",
          "name": "deposit",
          "type": "uint256"
        },
        {
          "internalType": "uint256",
          "name": "dedit",
          "type": "uint256"
        },
        {
          "internalType": "uint256",
          "name": "blockTime",
          "type": "uint256"
        },
        {
          "internalType": "bytes",
          "name": "udi",
          "type": "bytes"
        },
        {
          "internalType": "uint256",
          "name": "amount",
          "type": "uint256"
        },
        {
          "internalType": "bytes",
          "name": "hospitalSignature",
          "type": "bytes"
        },
        {
          "internalType": "bytes",
          "name": "supplierSignature",
          "type": "bytes"
        }
      ],
      "stateMutability": "view",
      "type": "function"
    },
    {
      "inputs": [
        {
          "internalType": "uint256",
          "name": "orderId",
          "type": "uint256"
        },
        {
          "internalType": "bytes",
          "name": "_signature",
          "type": "bytes"
        }
      ],
      "name": "storeSupplierSignature",
      "outputs": [],
      "stateMutability": "nonpayable",
      "type": "function"
    }
  ],
  "bytecode": "0x60806040526001805534801561001457600080fd5b506116c9806100246000396000f3fe608060405234801561001057600080fd5b50600436106100575760003560e01c806315047b1a1461005c5780632a58b3301461008c578063a85c38ef146100aa578063ec7dd7bb146100e4578063f0a33df51461011e575b600080fd5b61007660048036038101906100719190610dff565b61013a565b6040516100839190610f80565b60405180910390f35b610094610342565b6040516100a19190610f80565b60405180910390f35b6100c460048036038101906100bf9190610f9b565b610348565b6040516100db9b9a99989796959493929190611047565b60405180910390f35b6100fe60048036038101906100f99190610f9b565b61075a565b6040516101159b9a99989796959493929190611047565b60405180910390f35b61013860048036038101906101339190611123565b610bac565b005b6000806040518061016001604052808c81526020018b81526020018a8152602001898152602001888152602001878152602001428152602001858152602001848152602001868152602001600067ffffffffffffffff8111156101a05761019f610c9e565b5b6040519080825280601f01601f1916602001820160405280156101d25781602001600182028036833780820191505090505b5081525090508060008060015481526020019081526020016000206000820151816000019081610202919061138b565b506020820151816001019081610218919061138b565b50604082015181600201908161022e919061138b565b506060820151816003019081610244919061138b565b506080820151816004015560a0820151816005015560c0820151816006015560e0820151816007019081610278919061138b565b50610100820151816008015561012082015181600901908161029a919061138b565b5061014082015181600a0190816102b1919061138b565b50905050600160008154809291906102c89061148c565b9190505550600180546102db91906114d4565b7f6e1f232c1e7b46d7fc12a0c712ab19c566b667a89e817495db15afcb293c02cc8c8c8c8c8c8c428c8c8f60405161031c9a99989796959493929190611508565b60405180910390a26001805461033291906114d4565b9150509998505050505050505050565b60015481565b600060205280600052604060002060009150905080600001805461036b906111ae565b80601f0160208091040260200160405190810160405280929190818152602001828054610397906111ae565b80156103e45780601f106103b9576101008083540402835291602001916103e4565b820191906000526020600020905b8154815290600101906020018083116103c757829003601f168201915b5050505050908060010180546103f9906111ae565b80601f0160208091040260200160405190810160405280929190818152602001828054610425906111ae565b80156104725780601f1061044757610100808354040283529160200191610472565b820191906000526020600020905b81548152906001019060200180831161045557829003601f168201915b505050505090806002018054610487906111ae565b80601f01602080910402602001604051908101604052809291908181526020018280546104b3906111ae565b80156105005780601f106104d557610100808354040283529160200191610500565b820191906000526020600020905b8154815290600101906020018083116104e357829003601f168201915b505050505090806003018054610515906111ae565b80601f0160208091040260200160405190810160405280929190818152602001828054610541906111ae565b801561058e5780601f106105635761010080835404028352916020019161058e565b820191906000526020600020905b81548152906001019060200180831161057157829003601f168201915b5050505050908060040154908060050154908060060154908060070180546105b5906111ae565b80601f01602080910402602001604051908101604052809291908181526020018280546105e1906111ae565b801561062e5780601f106106035761010080835404028352916020019161062e565b820191906000526020600020905b81548152906001019060200180831161061157829003601f168201915b505050505090806008015490806009018054610649906111ae565b80601f0160208091040260200160405190810160405280929190818152602001828054610675906111ae565b80156106c25780601f10610697576101008083540402835291602001916106c2565b820191906000526020600020905b8154815290600101906020018083116106a557829003601f168201915b50505050509080600a0180546106d7906111ae565b80601f0160208091040260200160405190810160405280929190818152602001828054610703906111ae565b80156107505780601f1061072557610100808354040283529160200191610750565b820191906000526020600020905b81548152906001019060200180831161073357829003601f168201915b505050505090508b565b60608060608060008060006060600060608060008060008e8152602001908152602001600020905080600001816001018260020183600301846004015485600501548660060154876007018860080154896009018a600a018a80546107be906111ae565b80601f01602080910402602001604051908101604052809291908181526020018280546107ea906111ae565b80156108375780601f1061080c57610100808354040283529160200191610837565b820191906000526020600020905b81548152906001019060200180831161081a57829003601f168201915b50505050509a5089805461084a906111ae565b80601f0160208091040260200160405190810160405280929190818152602001828054610876906111ae565b80156108c35780601f10610898576101008083540402835291602001916108c3565b820191906000526020600020905b8154815290600101906020018083116108a657829003601f168201915b505050505099508880546108d6906111ae565b80601f0160208091040260200160405190810160405280929190818152602001828054610902906111ae565b801561094f5780601f106109245761010080835404028352916020019161094f565b820191906000526020600020905b81548152906001019060200180831161093257829003601f168201915b50505050509850878054610962906111ae565b80601f016020809104026020016040519081016040528092919081815260200182805461098e906111ae565b80156109db5780601f106109b0576101008083540402835291602001916109db565b820191906000526020600020905b8154815290600101906020018083116109be57829003601f168201915b505050505097508380546109ee906111ae565b80601f0160208091040260200160405190810160405280929190818152602001828054610a1a906111ae565b8015610a675780601f10610a3c57610100808354040283529160200191610a67565b820191906000526020600020905b815481529060010190602001808311610a4a57829003601f168201915b50505050509350818054610a7a906111ae565b80601f0160208091040260200160405190810160405280929190818152602001828054610aa6906111ae565b8015610af35780601f10610ac857610100808354040283529160200191610af3565b820191906000526020600020905b815481529060010190602001808311610ad657829003601f168201915b50505050509150808054610b06906111ae565b80601f0160208091040260200160405190810160405280929190818152602001828054610b32906111ae565b8015610b7f5780601f10610b5457610100808354040283529160200191610b7f565b820191906000526020600020905b815481529060010190602001808311610b6257829003601f168201915b505050505090509b509b509b509b509b509b509b509b509b509b509b505091939597999b90929496989a50565b6000806000848152602001908152602001600020600a018054610bce906111ae565b905014610c10576040517f08c379a0000000000000000000000000000000000000000000000000000000008152600401610c0790611651565b60405180910390fd5b80600080848152602001908152602001600020600a019081610c32919061138b565b50817f0c0146afe858f48d5dff7128f41a15443a7b65fe954c4d2e62ad87edb4bcba4482604051610c639190611671565b60405180910390a25050565b6000604051905090565b600080fd5b600080fd5b600080fd5b600080fd5b6000601f19601f8301169050919050565b7f4e487b7100000000000000000000000000000000000000000000000000000000600052604160045260246000fd5b610cd682610c8d565b810181811067ffffffffffffffff82111715610cf557610cf4610c9e565b5b80604052505050565b6000610d08610c6f565b9050610d148282610ccd565b919050565b600067ffffffffffffffff821115610d3457610d33610c9e565b5b610d3d82610c8d565b9050602081019050919050565b82818337600083830152505050565b6000610d6c610d6784610d19565b610cfe565b905082815260208101848484011115610d8857610d87610c88565b5b610d93848285610d4a565b509392505050565b600082601f830112610db057610daf610c83565b5b8135610dc0848260208601610d59565b91505092915050565b6000819050919050565b610ddc81610dc9565b8114610de757600080fd5b50565b600081359050610df981610dd3565b92915050565b60008060008060008060008060006101208a8c031215610e2257610e21610c79565b5b60008a013567ffffffffffffffff811115610e4057610e3f610c7e565b5b610e4c8c828d01610d9b565b99505060208a013567ffffffffffffffff811115610e6d57610e6c610c7e565b5b610e798c828d01610d9b565b98505060408a013567ffffffffffffffff811115610e9a57610e99610c7e565b5b610ea68c828d01610d9b565b97505060608a013567ffffffffffffffff811115610ec757610ec6610c7e565b5b610ed38c828d01610d9b565b9650506080610ee48c828d01610dea565b95505060a0610ef58c828d01610dea565b94505060c08a013567ffffffffffffffff811115610f1657610f15610c7e565b5b610f228c828d01610d9b565b93505060e08a013567ffffffffffffffff811115610f4357610f42610c7e565b5b610f4f8c828d01610d9b565b925050610100610f618c828d01610dea565b9150509295985092959850929598565b610f7a81610dc9565b82525050565b6000602082019050610f956000830184610f71565b92915050565b600060208284031215610fb157610fb0610c79565b5b6000610fbf84828501610dea565b91505092915050565b600081519050919050565b600082825260208201905092915050565b60005b83811015611002578082015181840152602081019050610fe7565b60008484015250505050565b600061101982610fc8565b6110238185610fd3565b9350611033818560208601610fe4565b61103c81610c8d565b840191505092915050565b6000610160820190508181036000830152611062818e61100e565b90508181036020830152611076818d61100e565b9050818103604083015261108a818c61100e565b9050818103606083015261109e818b61100e565b90506110ad608083018a610f71565b6110ba60a0830189610f71565b6110c760c0830188610f71565b81810360e08301526110d9818761100e565b90506110e9610100830186610f71565b8181036101208301526110fc818561100e565b9050818103610140830152611111818461100e565b90509c9b505050505050505050505050565b6000806040838503121561113a57611139610c79565b5b600061114885828601610dea565b925050602083013567ffffffffffffffff81111561116957611168610c7e565b5b61117585828601610d9b565b9150509250929050565b7f4e487b7100000000000000000000000000000000000000000000000000000000600052602260045260246000fd5b600060028204905060018216806111c657607f821691505b6020821081036111d9576111d861117f565b5b50919050565b60008190508160005260206000209050919050565b60006020601f8301049050919050565b600082821b905092915050565b6000600883026112417fffffffffffffffffffffffffffffffffffffffffffffffffffffffffffffffff82611204565b61124b8683611204565b95508019841693508086168417925050509392505050565b6000819050919050565b600061128861128361127e84610dc9565b611263565b610dc9565b9050919050565b6000819050919050565b6112a28361126d565b6112b66112ae8261128f565b848454611211565b825550505050565b600090565b6112cb6112be565b6112d6818484611299565b505050565b5b818110156112fa576112ef6000826112c3565b6001810190506112dc565b5050565b601f82111561133f57611310816111df565b611319846111f4565b81016020851015611328578190505b61133c611334856111f4565b8301826112db565b50505b505050565b600082821c905092915050565b600061136260001984600802611344565b1980831691505092915050565b600061137b8383611351565b9150826002028217905092915050565b61139482610fc8565b67ffffffffffffffff8111156113ad576113ac610c9e565b5b6113b782546111ae565b6113c28282856112fe565b600060209050601f8311600181146113f557600084156113e3578287015190505b6113ed858261136f565b865550611455565b601f198416611403866111df565b60005b8281101561142b57848901518255600182019150602085019450602081019050611406565b868310156114485784890151611444601f891682611351565b8355505b6001600288020188555050505b505050505050565b7f4e487b7100000000000000000000000000000000000000000000000000000000600052601160045260246000fd5b600061149782610dc9565b91507fffffffffffffffffffffffffffffffffffffffffffffffffffffffffffffffff82036114c9576114c861145d565b5b600182019050919050565b60006114df82610dc9565b91506114ea83610dc9565b92508282039050818111156115025761150161145d565b5b92915050565b6000610140820190508181036000830152611523818d61100e565b90508181036020830152611537818c61100e565b9050818103604083015261154b818b61100e565b9050818103606083015261155f818a61100e565b905061156e6080830189610f71565b61157b60a0830188610f71565b61158860c0830187610f71565b81810360e083015261159a818661100e565b90506115aa610100830185610f71565b8181036101208301526115bd818461100e565b90509b9a5050505050505050505050565b600082825260208201905092915050565b7f4f7264657220616c726561647920686173206120737570706c6965722073696760008201527f6e61747572650000000000000000000000000000000000000000000000000000602082015250565b600061163b6026836115ce565b9150611646826115df565b604082019050919050565b6000602082019050818103600083015261166a8161162e565b9050919050565b6000602082019050818103600083015261168b818461100e565b90509291505056fea2646970667358221220960d2ff0fc99a20ed09c008b8f425a869e1cb3a3099a60eedd7a894412192b6464736f6c63430008100033",
  "linkReferences": {},
  "deployedLinkReferences": {}
}